{
  "contractName": "Election",
  "abi": [
    {
      "inputs": [],
      "stateMutability": "nonpayable",
      "type": "constructor"
    },
    {
      "anonymous": false,
      "inputs": [
        {
          "indexed": false,
          "internalType": "uint256",
          "name": "id",
          "type": "uint256"
        }
      ],
      "name": "CandidateAdd",
      "type": "event"
    },
    {
      "anonymous": false,
      "inputs": [
        {
          "indexed": false,
          "internalType": "uint256",
          "name": "id",
          "type": "uint256"
        }
      ],
      "name": "CandidateRemove",
      "type": "event"
    },
    {
      "anonymous": false,
      "inputs": [
        {
          "indexed": false,
          "internalType": "uint256",
          "name": "id",
          "type": "uint256"
        }
      ],
      "name": "ElectionAdd",
      "type": "event"
    },
    {
      "anonymous": false,
      "inputs": [
        {
          "indexed": false,
          "internalType": "uint256",
          "name": "id",
          "type": "uint256"
        }
      ],
      "name": "ElectionRemove",
      "type": "event"
    },
    {
      "anonymous": false,
      "inputs": [
        {
          "indexed": false,
          "internalType": "uint256",
          "name": "id",
          "type": "uint256"
        }
      ],
      "name": "Vote",
      "type": "event"
    },
    {
      "anonymous": false,
      "inputs": [
        {
          "indexed": false,
          "internalType": "uint256",
          "name": "id",
          "type": "uint256"
        }
      ],
      "name": "VoterAdd",
      "type": "event"
    },
    {
      "inputs": [
        {
          "internalType": "uint256",
          "name": "",
          "type": "uint256"
        }
      ],
      "name": "candidates",
      "outputs": [
        {
          "internalType": "uint256",
          "name": "id",
          "type": "uint256"
        },
        {
          "internalType": "string",
          "name": "Cname",
          "type": "string"
        },
        {
          "internalType": "string",
          "name": "Caddress",
          "type": "string"
        },
        {
          "internalType": "string",
          "name": "description",
          "type": "string"
        },
        {
          "internalType": "string",
          "name": "Cimage",
          "type": "string"
        },
        {
          "internalType": "uint256",
          "name": "numVotes",
          "type": "uint256"
        }
      ],
      "stateMutability": "view",
      "type": "function",
      "constant": true
    },
    {
      "inputs": [],
      "name": "candidatesCount",
      "outputs": [
        {
          "internalType": "uint256",
          "name": "",
          "type": "uint256"
        }
      ],
      "stateMutability": "view",
      "type": "function",
      "constant": true
    },
    {
      "inputs": [],
      "name": "electingCount",
      "outputs": [
        {
          "internalType": "uint256",
          "name": "",
          "type": "uint256"
        }
      ],
      "stateMutability": "view",
      "type": "function",
      "constant": true
    },
    {
      "inputs": [
        {
          "internalType": "uint256",
          "name": "",
          "type": "uint256"
        }
      ],
      "name": "electingRoom",
      "outputs": [
        {
          "internalType": "uint256",
          "name": "id",
          "type": "uint256"
        },
        {
          "internalType": "string",
          "name": "name",
          "type": "string"
        },
        {
          "internalType": "string",
          "name": "description",
          "type": "string"
        },
        {
          "internalType": "string",
          "name": "keyRoom",
          "type": "string"
        },
        {
          "internalType": "uint256",
          "name": "startTime",
          "type": "uint256"
        },
        {
          "internalType": "address",
          "name": "authRoom",
          "type": "address"
        },
        {
          "internalType": "uint256",
          "name": "endTime",
          "type": "uint256"
        }
      ],
      "stateMutability": "view",
      "type": "function",
      "constant": true
    },
    {
      "inputs": [
        {
          "internalType": "uint256",
          "name": "",
          "type": "uint256"
        }
      ],
      "name": "electings",
      "outputs": [
        {
          "internalType": "uint256",
          "name": "id",
          "type": "uint256"
        },
        {
          "internalType": "string",
          "name": "name",
          "type": "string"
        },
        {
          "internalType": "string",
          "name": "description",
          "type": "string"
        },
        {
          "internalType": "string",
          "name": "keyRoom",
          "type": "string"
        },
        {
          "internalType": "uint256",
          "name": "startTime",
          "type": "uint256"
        },
        {
          "internalType": "address",
          "name": "authRoom",
          "type": "address"
        },
        {
          "internalType": "uint256",
          "name": "endTime",
          "type": "uint256"
        }
      ],
      "stateMutability": "view",
      "type": "function",
      "constant": true
    },
    {
      "inputs": [],
      "name": "owner",
      "outputs": [
        {
          "internalType": "address",
          "name": "",
          "type": "address"
        }
      ],
      "stateMutability": "view",
      "type": "function",
      "constant": true
    },
    {
      "inputs": [],
      "name": "tempCount",
      "outputs": [
        {
          "internalType": "uint256",
          "name": "",
          "type": "uint256"
        }
      ],
      "stateMutability": "view",
      "type": "function",
      "constant": true
    },
    {
      "inputs": [
        {
          "internalType": "uint256",
          "name": "",
          "type": "uint256"
        }
      ],
      "name": "tempRoom",
      "outputs": [
        {
          "internalType": "uint256",
          "name": "id",
          "type": "uint256"
        },
        {
          "internalType": "string",
          "name": "Cname",
          "type": "string"
        },
        {
          "internalType": "string",
          "name": "Caddress",
          "type": "string"
        },
        {
          "internalType": "string",
          "name": "description",
          "type": "string"
        },
        {
          "internalType": "string",
          "name": "Cimage",
          "type": "string"
        },
        {
          "internalType": "uint256",
          "name": "numVotes",
          "type": "uint256"
        }
      ],
      "stateMutability": "view",
      "type": "function",
      "constant": true
    },
    {
      "inputs": [],
      "name": "totalVotes",
      "outputs": [
        {
          "internalType": "uint256",
          "name": "",
          "type": "uint256"
        }
      ],
      "stateMutability": "view",
      "type": "function",
      "constant": true
    },
    {
      "inputs": [],
      "name": "votedCount",
      "outputs": [
        {
          "internalType": "uint256",
          "name": "",
          "type": "uint256"
        }
      ],
      "stateMutability": "view",
      "type": "function",
      "constant": true
    },
    {
      "inputs": [
        {
          "internalType": "address",
          "name": "",
          "type": "address"
        }
      ],
      "name": "voters",
      "outputs": [
        {
          "internalType": "string",
          "name": "Vname",
          "type": "string"
        },
        {
          "internalType": "address",
          "name": "token",
          "type": "address"
        },
        {
          "internalType": "bool",
          "name": "authorised",
          "type": "bool"
        }
      ],
      "stateMutability": "view",
      "type": "function",
      "constant": true
    },
    {
      "inputs": [
        {
          "internalType": "uint256",
          "name": "",
          "type": "uint256"
        }
      ],
      "name": "votersArr",
      "outputs": [
        {
          "internalType": "string",
          "name": "Vname",
          "type": "string"
        },
        {
          "internalType": "address",
          "name": "token",
          "type": "address"
        },
        {
          "internalType": "bool",
          "name": "authorised",
          "type": "bool"
        }
      ],
      "stateMutability": "view",
      "type": "function",
      "constant": true
    },
    {
      "inputs": [],
      "name": "getBalance",
      "outputs": [
        {
          "internalType": "uint256",
          "name": "",
          "type": "uint256"
        }
      ],
      "stateMutability": "view",
      "type": "function",
      "constant": true
    },
    {
      "inputs": [
        {
          "internalType": "string",
          "name": "_keyRoom",
          "type": "string"
        },
        {
          "internalType": "string",
          "name": "_title",
          "type": "string"
        },
        {
          "internalType": "string",
          "name": "_description",
          "type": "string"
        },
        {
          "internalType": "address",
          "name": "_authRoom",
          "type": "address"
        },
        {
          "internalType": "uint256",
          "name": "_startTime",
          "type": "uint256"
        },
        {
          "internalType": "uint256",
          "name": "_endTime",
          "type": "uint256"
        }
      ],
      "name": "createElectionRoom",
      "outputs": [],
      "stateMutability": "nonpayable",
      "type": "function"
    },
    {
      "inputs": [
        {
          "internalType": "string",
          "name": "_candidateName",
          "type": "string"
        },
        {
          "internalType": "string",
          "name": "_candidateAddress",
          "type": "string"
        },
        {
          "internalType": "string",
          "name": "_description",
          "type": "string"
        },
        {
          "internalType": "string",
          "name": "_candidateImage",
          "type": "string"
        },
        {
          "internalType": "uint256",
          "name": "selectedRoom",
          "type": "uint256"
        }
      ],
      "name": "addCandidate",
      "outputs": [],
      "stateMutability": "nonpayable",
      "type": "function"
    },
    {
      "inputs": [
        {
          "internalType": "uint256",
          "name": "electingIndex",
          "type": "uint256"
        }
      ],
      "name": "deleteElecting",
      "outputs": [],
      "stateMutability": "nonpayable",
      "type": "function"
    },
    {
      "inputs": [
        {
          "internalType": "uint256",
          "name": "candidateIndex",
          "type": "uint256"
        },
        {
          "internalType": "uint256",
          "name": "selectedRoom",
          "type": "uint256"
        }
      ],
      "name": "deleteCandidate",
      "outputs": [],
      "stateMutability": "nonpayable",
      "type": "function"
    },
    {
      "inputs": [
        {
          "internalType": "uint256",
          "name": "selectedRoom",
          "type": "uint256"
        }
      ],
      "name": "getRoomCandidates",
      "outputs": [],
      "stateMutability": "nonpayable",
      "type": "function"
    },
    {
      "inputs": [
        {
          "internalType": "string",
          "name": "_nameVoter",
          "type": "string"
        },
        {
          "internalType": "address",
          "name": "_voterAdress",
          "type": "address"
        }
      ],
      "name": "addVoter",
      "outputs": [],
      "stateMutability": "nonpayable",
      "type": "function"
    },
    {
      "inputs": [
        {
          "internalType": "uint256",
          "name": "CandidateIndex",
          "type": "uint256"
        },
        {
          "internalType": "uint256",
          "name": "roomID",
          "type": "uint256"
        }
      ],
      "name": "vote",
      "outputs": [],
      "stateMutability": "nonpayable",
      "type": "function"
    },
    {
      "inputs": [
        {
          "internalType": "uint256",
          "name": "selectedRoom",
          "type": "uint256"
        }
      ],
      "name": "checkEndElection",
      "outputs": [
        {
          "internalType": "bool",
          "name": "",
          "type": "bool"
        }
      ],
      "stateMutability": "view",
      "type": "function",
      "constant": true
    },
    {
      "inputs": [
        {
          "internalType": "uint256",
          "name": "selectedRoom",
          "type": "uint256"
        }
      ],
      "name": "checkWinner",
      "outputs": [
        {
          "components": [
            {
              "internalType": "uint256",
              "name": "id",
              "type": "uint256"
            },
            {
              "internalType": "string",
              "name": "Cname",
              "type": "string"
            },
            {
              "internalType": "string",
              "name": "Caddress",
              "type": "string"
            },
            {
              "internalType": "string",
              "name": "description",
              "type": "string"
            },
            {
              "internalType": "string",
              "name": "Cimage",
              "type": "string"
            },
            {
              "internalType": "uint256",
              "name": "numVotes",
              "type": "uint256"
            }
          ],
          "internalType": "struct Election.Candidate",
          "name": "",
          "type": "tuple"
        }
      ],
      "stateMutability": "view",
      "type": "function",
      "constant": true
    }
  ],
  "bytecode": "0x6080604052600060025560006003556000600555600060085534801561002457600080fd5b5033600a60006101000a81548173ffffffffffffffffffffffffffffffffffffffff021916908373ffffffffffffffffffffffffffffffffffffffff16021790555061355e806100756000396000f3fe608060405234801561001057600080fd5b50600436106101425760003560e01c806383e917cc116100b8578063b04161611161007c578063b0416161146103af578063b384abef146103cd578063c0d27b35146103e9578063cf4a606014610407578063f0232d0a14610423578063fbb706691461044157610142565b806383e917cc146102dd5780638d3d28d7146102f95780638da5cb5b14610329578063a3ec138d14610347578063a70aa3041461037957610142565b80632d35a8a21161010a5780632d35a8a2146102015780632e330d4b1461021f5780633477ee2e1461023b57806354df6aed146102705780635607395b146102a5578063640be27e146102c157610142565b80630d15fd771461014757806312065fe014610165578063188549391461018357806322b0231a146101b357806328e3570b146101e5575b600080fd5b61014f610477565b60405161015c9190612b89565b60405180910390f35b61016d61047d565b60405161017a9190612b89565b60405180910390f35b61019d60048036038101906101989190612be4565b6104be565b6040516101aa9190612d57565b60405180910390f35b6101cd60048036038101906101c89190612be4565b6108b6565b6040516101dc93929190612e1f565b60405180910390f35b6101ff60048036038101906101fa9190612be4565b6109a5565b005b610209610ecf565b6040516102169190612b89565b60405180910390f35b61023960048036038101906102349190612be4565b610ed5565b005b61025560048036038101906102509190612be4565b611060565b60405161026796959493929190612e5d565b60405180910390f35b61028a60048036038101906102859190612be4565b6112bc565b60405161029c96959493929190612e5d565b60405180910390f35b6102bf60048036038101906102ba919061303b565b611528565b005b6102db60048036038101906102d69190613097565b6118d2565b005b6102f760048036038101906102f29190613178565b611b30565b005b610313600480360381019061030e9190612be4565b611d70565b6040516103209190613263565b60405180910390f35b610331611db1565b60405161033e919061327e565b60405180910390f35b610361600480360381019061035c9190613299565b611dd7565b60405161037093929190612e1f565b60405180910390f35b610393600480360381019061038e9190612be4565b611eb6565b6040516103a697969594939291906132c6565b60405180910390f35b6103b76120c0565b6040516103c49190612b89565b60405180910390f35b6103e760048036038101906103e2919061334a565b6120c6565b005b6103f16124aa565b6040516103fe9190612b89565b60405180910390f35b610421600480360381019061041c919061334a565b6124b0565b005b61042b612601565b6040516104389190612b89565b60405180910390f35b61045b60048036038101906104569190612be4565b612607565b60405161046e97969594939291906132c6565b60405180910390f35b600b5481565b6000600a60009054906101000a900473ffffffffffffffffffffffffffffffffffffffff1673ffffffffffffffffffffffffffffffffffffffff1631905090565b6104c6612801565b600115156104d383611d70565b151514610515576040517f08c379a000000000000000000000000000000000000000000000000000000000815260040161050c906133d6565b60405180910390fd5b600080838154811061052a576105296133f6565b5b90600052602060002090600802016007018054905090506000808481548110610556576105556133f6565b5b906000526020600020906008020160070160008154811061057a576105796133f6565b5b9060005260206000209060060201905060005b82811015610644578160050154600086815481106105ae576105ad6133f6565b5b906000526020600020906008020160070182815481106105d1576105d06133f6565b5b906000526020600020906006020160050154111561063157600085815481106105fd576105fc6133f6565b5b906000526020600020906008020160070181815481106106205761061f6133f6565b5b906000526020600020906006020191505b808061063c90613454565b91505061058d565b50806040518060c00160405290816000820154815260200160018201805461066b906134cc565b80601f0160208091040260200160405190810160405280929190818152602001828054610697906134cc565b80156106e45780601f106106b9576101008083540402835291602001916106e4565b820191906000526020600020905b8154815290600101906020018083116106c757829003601f168201915b505050505081526020016002820180546106fd906134cc565b80601f0160208091040260200160405190810160405280929190818152602001828054610729906134cc565b80156107765780601f1061074b57610100808354040283529160200191610776565b820191906000526020600020905b81548152906001019060200180831161075957829003601f168201915b5050505050815260200160038201805461078f906134cc565b80601f01602080910402602001604051908101604052809291908181526020018280546107bb906134cc565b80156108085780601f106107dd57610100808354040283529160200191610808565b820191906000526020600020905b8154815290600101906020018083116107eb57829003601f168201915b50505050508152602001600482018054610821906134cc565b80601f016020809104026020016040519081016040528092919081815260200182805461084d906134cc565b801561089a5780601f1061086f5761010080835404028352916020019161089a565b820191906000526020600020905b81548152906001019060200180831161087d57829003601f168201915b5050505050815260200160058201548152505092505050919050565b600781815481106108c657600080fd5b90600052602060002090600402016000915090508060000180546108e9906134cc565b80601f0160208091040260200160405190810160405280929190818152602001828054610915906134cc565b80156109625780601f1061093757610100808354040283529160200191610962565b820191906000526020600020905b81548152906001019060200180831161094557829003601f168201915b5050505050908060010160009054906101000a900473ffffffffffffffffffffffffffffffffffffffff16908060010160149054906101000a900460ff16905083565b6000600281905550600160006109bb9190612837565b60005b600082815481106109d2576109d16133f6565b5b906000526020600020906008020160070180549050811015610ecb5760016040518060c0016040528060008581548110610a0f57610a0e6133f6565b5b90600052602060002090600802016007018481548110610a3257610a316133f6565b5b906000526020600020906006020160000154815260200160008581548110610a5d57610a5c6133f6565b5b90600052602060002090600802016007018481548110610a8057610a7f6133f6565b5b90600052602060002090600602016001018054610a9c906134cc565b80601f0160208091040260200160405190810160405280929190818152602001828054610ac8906134cc565b8015610b155780601f10610aea57610100808354040283529160200191610b15565b820191906000526020600020905b815481529060010190602001808311610af857829003601f168201915b5050505050815260200160008581548110610b3357610b326133f6565b5b90600052602060002090600802016007018481548110610b5657610b556133f6565b5b90600052602060002090600602016002018054610b72906134cc565b80601f0160208091040260200160405190810160405280929190818152602001828054610b9e906134cc565b8015610beb5780601f10610bc057610100808354040283529160200191610beb565b820191906000526020600020905b815481529060010190602001808311610bce57829003601f168201915b5050505050815260200160008581548110610c0957610c086133f6565b5b90600052602060002090600802016007018481548110610c2c57610c2b6133f6565b5b90600052602060002090600602016003018054610c48906134cc565b80601f0160208091040260200160405190810160405280929190818152602001828054610c74906134cc565b8015610cc15780601f10610c9657610100808354040283529160200191610cc1565b820191906000526020600020905b815481529060010190602001808311610ca457829003601f168201915b5050505050815260200160008581548110610cdf57610cde6133f6565b5b90600052602060002090600802016007018481548110610d0257610d016133f6565b5b90600052602060002090600602016004018054610d1e906134cc565b80601f0160208091040260200160405190810160405280929190818152602001828054610d4a906134cc565b8015610d975780601f10610d6c57610100808354040283529160200191610d97565b820191906000526020600020905b815481529060010190602001808311610d7a57829003601f168201915b5050505050815260200160008581548110610db557610db46133f6565b5b90600052602060002090600802016007018481548110610dd857610dd76133f6565b5b9060005260206000209060060201600501548152509080600181540180825580915050600190039060005260206000209060060201600090919091909150600082015181600001556020820151816001019080519060200190610e3c92919061285b565b506040820151816002019080519060200190610e5992919061285b565b506060820151816003019080519060200190610e7692919061285b565b506080820151816004019080519060200190610e9392919061285b565b5060a08201518160050155505060026000815480929190610eb390613454565b91905055508080610ec390613454565b9150506109be565b5050565b60055481565b60046000828152602001908152602001600020600080820160009055600182016000610f0191906128e1565b600282016000610f1191906128e1565b600382016000610f2191906128e1565b60048201600090556005820160006101000a81549073ffffffffffffffffffffffffffffffffffffffff02191690556006820160009055600782016000610f689190612837565b505060008181548110610f7e57610f7d6133f6565b5b9060005260206000209060080201600080820160009055600182016000610fa591906128e1565b600282016000610fb591906128e1565b600382016000610fc591906128e1565b60048201600090556005820160006101000a81549073ffffffffffffffffffffffffffffffffffffffff0219169055600682016000905560078201600061100c9190612837565b50507f95b525a6a958aa984d98487da35b674002e4efa14f00042729378dc9089d8b258160405161103d9190612b89565b60405180910390a160036000815480929190611058906134fe565b919050555050565b6006602052806000526040600020600091509050806000015490806001018054611089906134cc565b80601f01602080910402602001604051908101604052809291908181526020018280546110b5906134cc565b80156111025780601f106110d757610100808354040283529160200191611102565b820191906000526020600020905b8154815290600101906020018083116110e557829003601f168201915b505050505090806002018054611117906134cc565b80601f0160208091040260200160405190810160405280929190818152602001828054611143906134cc565b80156111905780601f1061116557610100808354040283529160200191611190565b820191906000526020600020905b81548152906001019060200180831161117357829003601f168201915b5050505050908060030180546111a5906134cc565b80601f01602080910402602001604051908101604052809291908181526020018280546111d1906134cc565b801561121e5780601f106111f35761010080835404028352916020019161121e565b820191906000526020600020905b81548152906001019060200180831161120157829003601f168201915b505050505090806004018054611233906134cc565b80601f016020809104026020016040519081016040528092919081815260200182805461125f906134cc565b80156112ac5780601f10611281576101008083540402835291602001916112ac565b820191906000526020600020905b81548152906001019060200180831161128f57829003601f168201915b5050505050908060050154905086565b600181815481106112cc57600080fd5b90600052602060002090600602016000915090508060000154908060010180546112f5906134cc565b80601f0160208091040260200160405190810160405280929190818152602001828054611321906134cc565b801561136e5780601f106113435761010080835404028352916020019161136e565b820191906000526020600020905b81548152906001019060200180831161135157829003601f168201915b505050505090806002018054611383906134cc565b80601f01602080910402602001604051908101604052809291908181526020018280546113af906134cc565b80156113fc5780601f106113d1576101008083540402835291602001916113fc565b820191906000526020600020905b8154815290600101906020018083116113df57829003601f168201915b505050505090806003018054611411906134cc565b80601f016020809104026020016040519081016040528092919081815260200182805461143d906134cc565b801561148a5780601f1061145f5761010080835404028352916020019161148a565b820191906000526020600020905b81548152906001019060200180831161146d57829003601f168201915b50505050509080600401805461149f906134cc565b80601f01602080910402602001604051908101604052809291908181526020018280546114cb906134cc565b80156115185780601f106114ed57610100808354040283529160200191611518565b820191906000526020600020905b8154815290600101906020018083116114fb57829003601f168201915b5050505050908060050154905086565b6000805b6007805490508110156115e6578273ffffffffffffffffffffffffffffffffffffffff1660078281548110611564576115636133f6565b5b906000526020600020906004020160010160009054906101000a900473ffffffffffffffffffffffffffffffffffffffff1673ffffffffffffffffffffffffffffffffffffffff16146115c45781806115bc90613454565b9250506115d3565b81806115cf906134fe565b9250505b80806115de90613454565b91505061152c565b506007805490508114156118cd5781600960008473ffffffffffffffffffffffffffffffffffffffff1673ffffffffffffffffffffffffffffffffffffffff16815260200190815260200160002060010160006101000a81548173ffffffffffffffffffffffffffffffffffffffff021916908373ffffffffffffffffffffffffffffffffffffffff1602179055506001600960008473ffffffffffffffffffffffffffffffffffffffff1673ffffffffffffffffffffffffffffffffffffffff16815260200190815260200160002060010160146101000a81548160ff0219169083151502179055506000600960008473ffffffffffffffffffffffffffffffffffffffff1673ffffffffffffffffffffffffffffffffffffffff16815260200190815260200160002090508381600001908051906020019061172b92919061285b565b506007600960008573ffffffffffffffffffffffffffffffffffffffff1673ffffffffffffffffffffffffffffffffffffffff168152602001908152602001600020908060018154018082558091505060019003906000526020600020906004020160009091909190915060008201816000019080546117aa906134cc565b6117b5929190612921565b506001820160009054906101000a900473ffffffffffffffffffffffffffffffffffffffff168160010160006101000a81548173ffffffffffffffffffffffffffffffffffffffff021916908373ffffffffffffffffffffffffffffffffffffffff1602179055506001820160149054906101000a900460ff168160010160146101000a81548160ff02191690831515021790555060028201816002019080546118609291906129ae565b5060038201816003019080546118779291906129ae565b5050507f14b742ee556e5574db3435d43d71a0f149b2864dc8062bbfe80d95b9a4ad41516008546040516118ab9190612b89565b60405180910390a1600860008154809291906118c690613454565b9190505550505b505050565b6000600354905060006004600083815260200190815260200160002090508181600001819055508681600101908051906020019061191192919061285b565b508581600201908051906020019061192a92919061285b565b508781600301908051906020019061194392919061285b565b50848160050160006101000a81548173ffffffffffffffffffffffffffffffffffffffff021916908373ffffffffffffffffffffffffffffffffffffffff16021790555083816004018190555082816006018190555060006004600084815260200190815260200160002090806001815401808255809150506001900390600052602060002090600802016000909190919091506000820154816000015560018201816001019080546119f5906134cc565b611a00929190612921565b506002820181600201908054611a15906134cc565b611a20929190612921565b506003820181600301908054611a35906134cc565b611a40929190612921565b50600482015481600401556005820160009054906101000a900473ffffffffffffffffffffffffffffffffffffffff168160050160006101000a81548173ffffffffffffffffffffffffffffffffffffffff021916908373ffffffffffffffffffffffffffffffffffffffff160217905550600682015481600601556007820181600701908054611ad2929190612a00565b5050507fc94f04bd8efa12a2373c54af26e1a4300ae09a01289f13e9f5240f9dd23df1d7600354604051611b069190612b89565b60405180910390a160036000815480929190611b2190613454565b91905055505050505050505050565b600a60009054906101000a900473ffffffffffffffffffffffffffffffffffffffff1673ffffffffffffffffffffffffffffffffffffffff163373ffffffffffffffffffffffffffffffffffffffff1614611b8a57600080fd5b60006005549050600060066000838152602001908152602001600020905081816000018190555086816001019080519060200190611bc992919061285b565b5085816002019080519060200190611be292919061285b565b5084816003019080519060200190611bfb92919061285b565b5083816004019080519060200190611c1492919061285b565b506000816005018190555060008381548110611c3357611c326133f6565b5b9060005260206000209060080201600701600660008481526020019081526020016000209080600181540180825580915050600190039060005260206000209060060201600090919091909150600082015481600001556001820181600101908054611c9e906134cc565b611ca9929190612921565b506002820181600201908054611cbe906134cc565b611cc9929190612921565b506003820181600301908054611cde906134cc565b611ce9929190612921565b506004820181600401908054611cfe906134cc565b611d09929190612921565b506005820154816005015550507f79b8ed86f6335dc9f371ea64947540fb05b35c7e2ebddb0c133019481c832fc9600554604051611d479190612b89565b60405180910390a160056000815480929190611d6290613454565b919050555050505050505050565b6000808281548110611d8557611d846133f6565b5b906000526020600020906008020160060154421415611da75760019050611dac565b600090505b919050565b600a60009054906101000a900473ffffffffffffffffffffffffffffffffffffffff1681565b6009602052806000526040600020600091509050806000018054611dfa906134cc565b80601f0160208091040260200160405190810160405280929190818152602001828054611e26906134cc565b8015611e735780601f10611e4857610100808354040283529160200191611e73565b820191906000526020600020905b815481529060010190602001808311611e5657829003601f168201915b5050505050908060010160009054906101000a900473ffffffffffffffffffffffffffffffffffffffff16908060010160149054906101000a900460ff16905083565b60008181548110611ec657600080fd5b9060005260206000209060080201600091509050806000015490806001018054611eef906134cc565b80601f0160208091040260200160405190810160405280929190818152602001828054611f1b906134cc565b8015611f685780601f10611f3d57610100808354040283529160200191611f68565b820191906000526020600020905b815481529060010190602001808311611f4b57829003601f168201915b505050505090806002018054611f7d906134cc565b80601f0160208091040260200160405190810160405280929190818152602001828054611fa9906134cc565b8015611ff65780601f10611fcb57610100808354040283529160200191611ff6565b820191906000526020600020905b815481529060010190602001808311611fd957829003601f168201915b50505050509080600301805461200b906134cc565b80601f0160208091040260200160405190810160405280929190818152602001828054612037906134cc565b80156120845780601f1061205957610100808354040283529160200191612084565b820191906000526020600020905b81548152906001019060200180831161206757829003601f168201915b5050505050908060040154908060050160009054906101000a900473ffffffffffffffffffffffffffffffffffffffff16908060060154905087565b60035481565b600960003373ffffffffffffffffffffffffffffffffffffffff1673ffffffffffffffffffffffffffffffffffffffff16815260200190815260200160002060010160149054906101000a900460ff1661211f57600080fd5b6000600960003373ffffffffffffffffffffffffffffffffffffffff1673ffffffffffffffffffffffffffffffffffffffff1681526020019081526020016000206002018054905090506000600960003373ffffffffffffffffffffffffffffffffffffffff1673ffffffffffffffffffffffffffffffffffffffff16815260200190815260200160002060030180549050905060006001905060006001905060005b848110156122515786600960003373ffffffffffffffffffffffffffffffffffffffff1673ffffffffffffffffffffffffffffffffffffffff168152602001908152602001600020600201828154811061221f5761221e6133f6565b5b90600052602060002001541415612239576000925061223e565b600192505b808061224990613454565b9150506121c2565b5060005b838110156122e45785600960003373ffffffffffffffffffffffffffffffffffffffff1673ffffffffffffffffffffffffffffffffffffffff16815260200190815260200160002060030182815481106122b2576122b16133f6565b5b906000526020600020015414156122cc57600091506122d1565b600191505b80806122dc90613454565b915050612255565b508180156122ef5750805b156124a257600960003373ffffffffffffffffffffffffffffffffffffffff1673ffffffffffffffffffffffffffffffffffffffff168152602001908152602001600020600201869080600181540180825580915050600190039060005260206000200160009091909190915055600960003373ffffffffffffffffffffffffffffffffffffffff1673ffffffffffffffffffffffffffffffffffffffff1681526020019081526020016000206003018590806001815401808255809150506001900390600052602060002001600090919091909150556006600087815260200190815260200160002060050160008154809291906123ed90613454565b919050555060008581548110612406576124056133f6565b5b90600052602060002090600802016007018681548110612429576124286133f6565b5b9060005260206000209060060201600501600081548092919061244b90613454565b91905055507fdcd6a5cd90707bfd61ed2fddae23e88c584cb5b78a0e9989710a59fd84c0a1f9600b546040516124819190612b89565b60405180910390a1600b600081548092919061249c90613454565b91905055505b505050505050565b60025481565b600660008381526020019081526020016000206000808201600090556001820160006124dc91906128e1565b6002820160006124ec91906128e1565b6003820160006124fc91906128e1565b60048201600061250c91906128e1565b600582016000905550506000818154811061252a576125296133f6565b5b9060005260206000209060080201600701828154811061254d5761254c6133f6565b5b906000526020600020906006020160008082016000905560018201600061257491906128e1565b60028201600061258491906128e1565b60038201600061259491906128e1565b6004820160006125a491906128e1565b600582016000905550507fbc05c446fe4705db3f658dd9fee670bc5e3342f65343ae26797bf36deae37195826040516125dd9190612b89565b60405180910390a1600560008154809291906125f8906134fe565b91905055505050565b60085481565b6004602052806000526040600020600091509050806000015490806001018054612630906134cc565b80601f016020809104026020016040519081016040528092919081815260200182805461265c906134cc565b80156126a95780601f1061267e576101008083540402835291602001916126a9565b820191906000526020600020905b81548152906001019060200180831161268c57829003601f168201915b5050505050908060020180546126be906134cc565b80601f01602080910402602001604051908101604052809291908181526020018280546126ea906134cc565b80156127375780601f1061270c57610100808354040283529160200191612737565b820191906000526020600020905b81548152906001019060200180831161271a57829003601f168201915b50505050509080600301805461274c906134cc565b80601f0160208091040260200160405190810160405280929190818152602001828054612778906134cc565b80156127c55780601f1061279a576101008083540402835291602001916127c5565b820191906000526020600020905b8154815290600101906020018083116127a857829003601f168201915b5050505050908060040154908060050160009054906101000a900473ffffffffffffffffffffffffffffffffffffffff16908060060154905087565b6040518060c001604052806000815260200160608152602001606081526020016060815260200160608152602001600081525090565b50805460008255600602906000526020600020908101906128589190612aec565b50565b828054612867906134cc565b90600052602060002090601f01602090048101928261288957600085556128d0565b82601f106128a257805160ff19168380011785556128d0565b828001600101855582156128d0579182015b828111156128cf5782518255916020019190600101906128b4565b5b5090506128dd9190612b53565b5090565b5080546128ed906134cc565b6000825580601f106128ff575061291e565b601f01602090049060005260206000209081019061291d9190612b53565b5b50565b82805461292d906134cc565b90600052602060002090601f01602090048101928261294f576000855561299d565b82601f10612960578054855561299d565b8280016001018555821561299d57600052602060002091601f016020900482015b8281111561299c578254825591600101919060010190612981565b5b5090506129aa9190612b53565b5090565b8280548282559060005260206000209081019282156129ef5760005260206000209182015b828111156129ee5782548255916001019190600101906129d3565b5b5090506129fc9190612b53565b5090565b828054828255906000526020600020906006028101928215612adb5760005260206000209160060282015b82811115612ada578282600082015481600001556001820181600101908054612a53906134cc565b612a5e929190612921565b506002820181600201908054612a73906134cc565b612a7e929190612921565b506003820181600301908054612a93906134cc565b612a9e929190612921565b506004820181600401908054612ab3906134cc565b612abe929190612921565b5060058201548160050155505091600601919060060190612a2b565b5b509050612ae89190612aec565b5090565b5b80821115612b4f57600080820160009055600182016000612b0e91906128e1565b600282016000612b1e91906128e1565b600382016000612b2e91906128e1565b600482016000612b3e91906128e1565b600582016000905550600601612aed565b5090565b5b80821115612b6c576000816000905550600101612b54565b5090565b6000819050919050565b612b8381612b70565b82525050565b6000602082019050612b9e6000830184612b7a565b92915050565b6000604051905090565b600080fd5b600080fd5b612bc181612b70565b8114612bcc57600080fd5b50565b600081359050612bde81612bb8565b92915050565b600060208284031215612bfa57612bf9612bae565b5b6000612c0884828501612bcf565b91505092915050565b612c1a81612b70565b82525050565b600081519050919050565b600082825260208201905092915050565b60005b83811015612c5a578082015181840152602081019050612c3f565b83811115612c69576000848401525b50505050565b6000601f19601f8301169050919050565b6000612c8b82612c20565b612c958185612c2b565b9350612ca5818560208601612c3c565b612cae81612c6f565b840191505092915050565b600060c083016000830151612cd16000860182612c11565b5060208301518482036020860152612ce98282612c80565b91505060408301518482036040860152612d038282612c80565b91505060608301518482036060860152612d1d8282612c80565b91505060808301518482036080860152612d378282612c80565b91505060a0830151612d4c60a0860182612c11565b508091505092915050565b60006020820190508181036000830152612d718184612cb9565b905092915050565b600082825260208201905092915050565b6000612d9582612c20565b612d9f8185612d79565b9350612daf818560208601612c3c565b612db881612c6f565b840191505092915050565b600073ffffffffffffffffffffffffffffffffffffffff82169050919050565b6000612dee82612dc3565b9050919050565b612dfe81612de3565b82525050565b60008115159050919050565b612e1981612e04565b82525050565b60006060820190508181036000830152612e398186612d8a565b9050612e486020830185612df5565b612e556040830184612e10565b949350505050565b600060c082019050612e726000830189612b7a565b8181036020830152612e848188612d8a565b90508181036040830152612e988187612d8a565b90508181036060830152612eac8186612d8a565b90508181036080830152612ec08185612d8a565b9050612ecf60a0830184612b7a565b979650505050505050565b600080fd5b600080fd5b7f4e487b7100000000000000000000000000000000000000000000000000000000600052604160045260246000fd5b612f1c82612c6f565b810181811067ffffffffffffffff82111715612f3b57612f3a612ee4565b5b80604052505050565b6000612f4e612ba4565b9050612f5a8282612f13565b919050565b600067ffffffffffffffff821115612f7a57612f79612ee4565b5b612f8382612c6f565b9050602081019050919050565b82818337600083830152505050565b6000612fb2612fad84612f5f565b612f44565b905082815260208101848484011115612fce57612fcd612edf565b5b612fd9848285612f90565b509392505050565b600082601f830112612ff657612ff5612eda565b5b8135613006848260208601612f9f565b91505092915050565b61301881612de3565b811461302357600080fd5b50565b6000813590506130358161300f565b92915050565b6000806040838503121561305257613051612bae565b5b600083013567ffffffffffffffff8111156130705761306f612bb3565b5b61307c85828601612fe1565b925050602061308d85828601613026565b9150509250929050565b60008060008060008060c087890312156130b4576130b3612bae565b5b600087013567ffffffffffffffff8111156130d2576130d1612bb3565b5b6130de89828a01612fe1565b965050602087013567ffffffffffffffff8111156130ff576130fe612bb3565b5b61310b89828a01612fe1565b955050604087013567ffffffffffffffff81111561312c5761312b612bb3565b5b61313889828a01612fe1565b945050606061314989828a01613026565b935050608061315a89828a01612bcf565b92505060a061316b89828a01612bcf565b9150509295509295509295565b600080600080600060a0868803121561319457613193612bae565b5b600086013567ffffffffffffffff8111156131b2576131b1612bb3565b5b6131be88828901612fe1565b955050602086013567ffffffffffffffff8111156131df576131de612bb3565b5b6131eb88828901612fe1565b945050604086013567ffffffffffffffff81111561320c5761320b612bb3565b5b61321888828901612fe1565b935050606086013567ffffffffffffffff81111561323957613238612bb3565b5b61324588828901612fe1565b925050608061325688828901612bcf565b9150509295509295909350565b60006020820190506132786000830184612e10565b92915050565b60006020820190506132936000830184612df5565b92915050565b6000602082840312156132af576132ae612bae565b5b60006132bd84828501613026565b91505092915050565b600060e0820190506132db600083018a612b7a565b81810360208301526132ed8189612d8a565b905081810360408301526133018188612d8a565b905081810360608301526133158187612d8a565b90506133246080830186612b7a565b61333160a0830185612df5565b61333e60c0830184612b7a565b98975050505050505050565b6000806040838503121561336157613360612bae565b5b600061336f85828601612bcf565b925050602061338085828601612bcf565b9150509250929050565b7f43687561206865742067696f0000000000000000000000000000000000000000600082015250565b60006133c0600c83612d79565b91506133cb8261338a565b602082019050919050565b600060208201905081810360008301526133ef816133b3565b9050919050565b7f4e487b7100000000000000000000000000000000000000000000000000000000600052603260045260246000fd5b7f4e487b7100000000000000000000000000000000000000000000000000000000600052601160045260246000fd5b600061345f82612b70565b91507fffffffffffffffffffffffffffffffffffffffffffffffffffffffffffffffff82141561349257613491613425565b5b600182019050919050565b7f4e487b7100000000000000000000000000000000000000000000000000000000600052602260045260246000fd5b600060028204905060018216806134e457607f821691505b602082108114156134f8576134f761349d565b5b50919050565b600061350982612b70565b9150600082141561351d5761351c613425565b5b60018203905091905056fea264697066735822122022a695619f98dfbbce4850f48404ebabe18ec4f73570fe7d50a8e3f2bff89cd864736f6c634300080b0033",
  "immutableReferences": {},
  "source": "// SPDX-License-Identifier: MIT\r\npragma solidity >=0.4.22 <0.9.0;\r\n\r\n\r\ncontract Election{\r\n\r\n\r\n    struct Electing{\r\n        uint id;\r\n        string name;\r\n        string description;\r\n        string keyRoom;\r\n        uint256 startTime;\r\n        address authRoom;\r\n        uint256 endTime;\r\n        Candidate[] memberRoom;\r\n    }\r\n\r\n    Electing[] public electingRoom;\r\n    Candidate[] public tempRoom;\r\n    uint public tempCount = 0;\r\n    uint public electingCount = 0;\r\n    mapping(uint => Electing) public electings;\r\n\r\n    struct Candidate{\r\n        uint256 id;\r\n        string Cname;\r\n        string Caddress;\r\n        string description;\r\n        string Cimage;\r\n        uint numVotes;\r\n    }\r\n\r\n    uint public candidatesCount = 0;\r\n    mapping (uint256 => Candidate) public candidates;\r\n\r\n    struct Voter{\r\n        string Vname;\r\n        address token;\r\n        bool authorised;\r\n        uint[] whom;\r\n        uint[] authorElection;\r\n    }\r\n\r\n    Voter[] public votersArr;\r\n    uint public votedCount = 0;\r\n    mapping(address => Voter) public voters;\r\n\r\n    //\r\n    address public owner;\r\n\r\n    //\r\n    uint public totalVotes;\r\n\r\n    event CandidateAdd(uint id);\r\n    event CandidateRemove(uint id);\r\n    event ElectionAdd(uint id);\r\n    event ElectionRemove(uint id);\r\n    event VoterAdd(uint id);\r\n    event Vote(uint id);\r\n\r\n\r\n    modifier onlyOwner(){\r\n        require(msg.sender == owner);\r\n        _;\r\n    }\r\n\r\n    constructor(){\r\n        owner = msg.sender;\r\n    }\r\n\r\n\r\n    function getBalance() public view returns (uint256) {\r\n        return owner.balance;\r\n    }\r\n\r\n    function createElectionRoom(\r\n        string memory _keyRoom,\r\n        string memory _title,\r\n        string memory _description,\r\n        address _authRoom,\r\n        uint256 _startTime,\r\n        uint256 _endTime\r\n        ) public {\r\n            uint _id = electingCount;\r\n            Electing storage electing = electings[_id];\r\n            electing.id = _id;\r\n            electing.name = _title;\r\n            electing.description = _description;\r\n            electing.keyRoom = _keyRoom;\r\n            electing.authRoom = _authRoom;\r\n            electing.startTime = _startTime;\r\n            electing.endTime = _endTime;\r\n           // electing.memberRoom = ;\r\n\r\n            electingRoom.push(electings[_id]);\r\n            emit ElectionAdd(electingCount);\r\n            electingCount++;\r\n    }\r\n\r\n\r\n    function addCandidate(\r\n        string memory _candidateName,\r\n        string memory _candidateAddress,\r\n        string memory _description,\r\n        string memory _candidateImage,\r\n        uint selectedRoom\r\n        ) public onlyOwner{\r\n            uint _id = candidatesCount;\r\n            Candidate storage candidate = candidates[_id];\r\n            candidate.id = _id;\r\n            candidate.Cname = _candidateName;\r\n            candidate.Caddress = _candidateAddress;\r\n            candidate.description = _description;\r\n            candidate.Cimage = _candidateImage;\r\n            candidate.numVotes = 0;\r\n\r\n            electingRoom[selectedRoom].memberRoom.push(candidates[_id]);\r\n            emit CandidateAdd(candidatesCount);\r\n            candidatesCount++;\r\n    }\r\n\r\n    function deleteElecting(uint electingIndex) public {\r\n        delete electings[electingIndex];\r\n        delete electingRoom[electingIndex];\r\n        emit ElectionRemove(electingIndex);\r\n        electingCount --;\r\n    }\r\n\r\n    function deleteCandidate(uint candidateIndex,uint selectedRoom) public {\r\n        delete candidates[candidateIndex];\r\n        delete electingRoom[selectedRoom].memberRoom[candidateIndex];\r\n        emit CandidateRemove(candidateIndex);\r\n        candidatesCount --;\r\n    }\r\n\r\n\r\n    \r\n    function getRoomCandidates(uint selectedRoom) public {\r\n        tempCount = 0;\r\n        delete tempRoom;\r\n        for(uint i = 0 ;  i < electingRoom[selectedRoom].memberRoom.length ; i++){\r\n            tempRoom.push(\r\n                Candidate(\r\n                    electingRoom[selectedRoom].memberRoom[i].id,\r\n                    electingRoom[selectedRoom].memberRoom[i].Cname,\r\n                    electingRoom[selectedRoom].memberRoom[i].Caddress,\r\n                    electingRoom[selectedRoom].memberRoom[i].description,\r\n                    electingRoom[selectedRoom].memberRoom[i].Cimage,\r\n                    electingRoom[selectedRoom].memberRoom[i].numVotes\r\n                )\r\n            );\r\n            tempCount++;\r\n        }\r\n    }\r\n\r\n    function addVoter(\r\n        string memory _nameVoter,\r\n        address _voterAdress\r\n        ) public {\r\n            uint x = 0;\r\n            for (uint256 i = 0; i < votersArr.length; i++) {\r\n                if (votersArr[i].token != _voterAdress) {\r\n                    x++;\r\n                } else {\r\n                    x--;\r\n                }\r\n            }\r\n            if(x == votersArr.length){\r\n                voters[_voterAdress].token = _voterAdress;\r\n                voters[_voterAdress].authorised = true; \r\n                Voter storage voter = voters[_voterAdress];\r\n                voter.Vname = _nameVoter;\r\n\r\n                votersArr.push(voters[_voterAdress]);\r\n                emit VoterAdd(votedCount);\r\n                votedCount++;\r\n            }\r\n    }\r\n\r\n    function vote(uint CandidateIndex,uint roomID) public {\r\n        require(voters[msg.sender].authorised);\r\n        uint whomLen = voters[msg.sender].whom.length;\r\n        uint authorElectionLen = voters[msg.sender].authorElection.length;\r\n        bool passWhom = true;\r\n        bool passRoom = true;\r\n\r\n        for(uint i = 0; i < whomLen ; i ++){\r\n            if(voters[msg.sender].whom[i] == CandidateIndex){\r\n                passWhom = false;\r\n            }else{\r\n                passWhom = true;\r\n            }\r\n        }\r\n        for(uint i = 0;  i < authorElectionLen ; i++){\r\n            if(voters[msg.sender].authorElection[i] == roomID){\r\n                passRoom = false;\r\n            }else{\r\n                passRoom = true;\r\n            }\r\n        }\r\n\r\n        if(passWhom && passRoom){\r\n            voters[msg.sender].whom.push(CandidateIndex);\r\n            voters[msg.sender].authorElection.push(roomID);\r\n            candidates[CandidateIndex].numVotes++;\r\n            electingRoom[roomID].memberRoom[CandidateIndex].numVotes++;\r\n            emit Vote(totalVotes);\r\n            totalVotes++;\r\n        }\r\n    }\r\n\r\n    function checkEndElection(uint selectedRoom) public view returns (bool) {\r\n        if(block.timestamp == electingRoom[selectedRoom].endTime){\r\n            return true;\r\n        }else{\r\n            return false;\r\n        }\r\n    }\r\n\r\n    function checkWinner(uint selectedRoom) public view returns (Candidate memory){\r\n        require(checkEndElection(selectedRoom) == true ,\"Chua het gio\");\r\n        uint len = electingRoom[selectedRoom].memberRoom.length;\r\n        Candidate storage temp = electingRoom[selectedRoom].memberRoom[0];\r\n        for(uint i = 0; i < len; i++){\r\n            if(electingRoom[selectedRoom].memberRoom[i].numVotes > temp.numVotes){\r\n                temp = electingRoom[selectedRoom].memberRoom[i];\r\n            }\r\n        }\r\n        return temp;\r\n    }\r\n}",
  "sourcePath": "D:\\Learning\\ProjectCourse5\\vku_vote\\blockchain\\contracts\\Election.sol",
  "compiler": {
    "name": "solc",
    "version": "0.8.11+commit.d7f03943.Emscripten.clang"
  },
  "schemaVersion": "3.4.5",
  "updatedAt": "2022-04-03T04:16:28.055Z",
  "networkType": "ethereum",
  "devdoc": {
    "kind": "dev",
    "methods": {},
    "version": 1
  },
  "userdoc": {
    "kind": "user",
    "methods": {},
    "version": 1
  }
}